{
  "contractName": "ControleAcces",
  "abi": [
    {
      "inputs": [],
      "stateMutability": "nonpayable",
      "type": "constructor"
    },
    {
      "inputs": [
        {
          "internalType": "string",
          "name": "raison",
          "type": "string"
        }
      ],
      "name": "AccesRefuse",
      "type": "error"
    },
    {
      "inputs": [],
      "name": "AdresseInvalide",
      "type": "error"
    },
    {
      "inputs": [
        {
          "internalType": "address",
          "name": "medecin",
          "type": "address"
        }
      ],
      "name": "NonCertifie",
      "type": "error"
    },
    {
      "anonymous": false,
      "inputs": [
        {
          "indexed": true,
          "internalType": "address",
          "name": "patient",
          "type": "address"
        },
        {
          "indexed": true,
          "internalType": "address",
          "name": "medecin",
          "type": "address"
        }
      ],
      "name": "AccesAutorise",
      "type": "event"
    },
    {
      "anonymous": false,
      "inputs": [
        {
          "indexed": true,
          "internalType": "address",
          "name": "patient",
          "type": "address"
        },
        {
          "indexed": true,
          "internalType": "address",
          "name": "medecin",
          "type": "address"
        }
      ],
      "name": "AccesRetire",
      "type": "event"
    },
    {
      "anonymous": false,
      "inputs": [
        {
          "indexed": true,
          "internalType": "address",
          "name": "medecin",
          "type": "address"
        }
      ],
      "name": "MedecinCertifie",
      "type": "event"
    },
    {
      "anonymous": false,
      "inputs": [
        {
          "indexed": true,
          "internalType": "address",
          "name": "medecin",
          "type": "address"
        }
      ],
      "name": "MedecinDesactive",
      "type": "event"
    },
    {
      "anonymous": false,
      "inputs": [
        {
          "indexed": true,
          "internalType": "address",
          "name": "secretaire",
          "type": "address"
        }
      ],
      "name": "SecretaireDesactive",
      "type": "event"
    },
    {
      "anonymous": false,
      "inputs": [
        {
          "indexed": true,
          "internalType": "address",
          "name": "secretaire",
          "type": "address"
        }
      ],
      "name": "SecretaireEnregistre",
      "type": "event"
    },
    {
      "inputs": [],
      "name": "admin",
      "outputs": [
        {
          "internalType": "address",
          "name": "",
          "type": "address"
        }
      ],
      "stateMutability": "view",
      "type": "function",
      "constant": true
    },
    {
      "inputs": [
        {
          "internalType": "address",
          "name": "",
          "type": "address"
        },
        {
          "internalType": "address",
          "name": "",
          "type": "address"
        }
      ],
      "name": "autorisations",
      "outputs": [
        {
          "internalType": "bool",
          "name": "",
          "type": "bool"
        }
      ],
      "stateMutability": "view",
      "type": "function",
      "constant": true
    },
    {
      "inputs": [
        {
          "internalType": "address",
          "name": "",
          "type": "address"
        }
      ],
      "name": "medecinsCertifies",
      "outputs": [
        {
          "internalType": "bool",
          "name": "",
          "type": "bool"
        }
      ],
      "stateMutability": "view",
      "type": "function",
      "constant": true
    },
    {
      "inputs": [
        {
          "internalType": "address",
          "name": "",
          "type": "address"
        }
      ],
      "name": "roles",
      "outputs": [
        {
          "internalType": "enum ControleAcces.Role",
          "name": "",
          "type": "uint8"
        }
      ],
      "stateMutability": "view",
      "type": "function",
      "constant": true
    },
    {
      "inputs": [
        {
          "internalType": "address",
          "name": "",
          "type": "address"
        }
      ],
      "name": "secretairesActifs",
      "outputs": [
        {
          "internalType": "bool",
          "name": "",
          "type": "bool"
        }
      ],
      "stateMutability": "view",
      "type": "function",
      "constant": true
    },
    {
      "inputs": [
        {
          "internalType": "address",
          "name": "_secretaire",
          "type": "address"
        }
      ],
      "name": "enregistrerSecretaire",
      "outputs": [],
      "stateMutability": "nonpayable",
      "type": "function"
    },
    {
      "inputs": [
        {
          "internalType": "address",
          "name": "_secretaire",
          "type": "address"
        }
      ],
      "name": "desactiverSecretaire",
      "outputs": [],
      "stateMutability": "nonpayable",
      "type": "function"
    },
    {
      "inputs": [
        {
          "internalType": "address",
          "name": "_medecin",
          "type": "address"
        }
      ],
      "name": "certifierMedecin",
      "outputs": [],
      "stateMutability": "nonpayable",
      "type": "function"
    },
    {
      "inputs": [
        {
          "internalType": "address",
          "name": "_medecin",
          "type": "address"
        }
      ],
      "name": "desactiverMedecin",
      "outputs": [],
      "stateMutability": "nonpayable",
      "type": "function"
    },
    {
      "inputs": [
        {
          "internalType": "address",
          "name": "_medecin",
          "type": "address"
        }
      ],
      "name": "autoriserAcces",
      "outputs": [],
      "stateMutability": "nonpayable",
      "type": "function"
    },
    {
      "inputs": [
        {
          "internalType": "address",
          "name": "_medecin",
          "type": "address"
        }
      ],
      "name": "retirerAcces",
      "outputs": [],
      "stateMutability": "nonpayable",
      "type": "function"
    },
    {
      "inputs": [
        {
          "internalType": "address",
          "name": "_patient",
          "type": "address"
        },
        {
          "internalType": "address",
          "name": "_medecin",
          "type": "address"
        }
      ],
      "name": "droitAcces",
      "outputs": [
        {
          "internalType": "bool",
          "name": "",
          "type": "bool"
        }
      ],
      "stateMutability": "view",
      "type": "function",
      "constant": true
    },
    {
      "inputs": [
        {
          "internalType": "address",
          "name": "_adresse",
          "type": "address"
        }
      ],
      "name": "getRole",
      "outputs": [
        {
          "internalType": "enum ControleAcces.Role",
          "name": "",
          "type": "uint8"
        }
      ],
      "stateMutability": "view",
      "type": "function",
      "constant": true
    }
  ],
  "bytecode": "0x608060405234801561001057600080fd5b50600080546001600160a01b03191673cce9f083a7eeeb0d50cc2819dd17a2cefad363c617815560016020527f1bf4feb2c8e015942dd61cc233ca94278423c2f63782c4a490045a489c4e5f13805460ff19908116909155338252604082208054909116905561084e90819061008690396000f3fe608060405234801561001057600080fd5b50600436106100cf5760003560e01c80636f9f87361161008c578063b6caedb911610066578063b6caedb9146101fb578063f7cfe02c14610237578063f851a4401461025a578063fffbd5831461028557600080fd5b80636f9f8736146101775780638bd4b8d7146101aa57806399374642146101d857600080fd5b806313c64997146100d45780632381b7d7146100e957806331cf3388146100fc57806332fea32b1461010f57806344276733146101225780636d15334914610164575b600080fd5b6100e76100e236600461075b565b610298565b005b6100e76100f736600461075b565b610317565b6100e761010a36600461075b565b6103d6565b6100e761011d36600461075b565b61048b565b61014e61013036600461075b565b6001600160a01b031660009081526001602052604090205460ff1690565b60405161015b9190610793565b60405180910390f35b6100e761017236600461075b565b610528565b61019a61018536600461075b565b60026020526000908152604090205460ff1681565b604051901515815260200161015b565b61019a6101b83660046107bb565b600460209081526000928352604080842090915290825290205460ff1681565b61014e6101e636600461075b565b60016020526000908152604090205460ff1681565b61019a6102093660046107bb565b6001600160a01b03918216600090815260046020908152604080832093909416825291909152205460ff1690565b61019a61024536600461075b565b60036020526000908152604090205460ff1681565b60005461026d906001600160a01b031681565b6040516001600160a01b03909116815260200161015b565b6100e761029336600461075b565b6105c5565b806001600160a01b0381166102c05760405163151bbd7d60e31b815260040160405180910390fd5b3360008181526004602090815260408083206001600160a01b0387168085529252808320805460ff19169055519092917f45565998ec320c39915e986249e3e2335c7d647b2bea08dcce4db5fadd1850ef91a35050565b6000546001600160a01b0316331461034b57604051636a33c72960e01b8152600401610342906107ee565b60405180910390fd5b806001600160a01b0381166103735760405163151bbd7d60e31b815260040160405180910390fd5b6001600160a01b03821660008181526003602090815260408083208054600160ff19918216811790925592819052818420805490931617909155517f53b20b2154f317a25d2bd40ad17e28eb816f29f40303fa1f1aeb31ff0ba800db9190a25050565b6000546001600160a01b0316331461040157604051636a33c72960e01b8152600401610342906107ee565b806001600160a01b0381166104295760405163151bbd7d60e31b815260040160405180910390fd5b6001600160a01b03821660008181526002602081815260408084208054600160ff199182168117909255925280842080549092169092179055517f50e8c798c727c22be063691160ad35b067b7536e09667531e7a66d92e58f5ee39190a25050565b6000546001600160a01b031633146104b657604051636a33c72960e01b8152600401610342906107ee565b806001600160a01b0381166104de5760405163151bbd7d60e31b815260040160405180910390fd5b6001600160a01b038216600081815260036020526040808220805460ff19169055517fe1c95a1b249bd5506c0d910ddb54d6a44e5ecda92be14f6fa136d533076619a29190a25050565b6000546001600160a01b0316331461055357604051636a33c72960e01b8152600401610342906107ee565b806001600160a01b03811661057b5760405163151bbd7d60e31b815260040160405180910390fd5b6001600160a01b038216600081815260026020526040808220805460ff19169055517fa1b225570f11304d7216e2960e260a747b84dd54874179506f31937c8b8ebe579190a25050565b806001600160a01b0381166105ed5760405163151bbd7d60e31b815260040160405180910390fd5b6001600160a01b03821660009081526002602052604090205460ff16610631576040516316eff82b60e31b81526001600160a01b0383166004820152602401610342565b3360009081526004602090815260408083206001600160a01b03861684529091528120805460ff191660011790553360009081526001602052604090205460ff1660038111156106835761068361077d565b141580156106b5575060013360009081526001602052604090205460ff1660038111156106b2576106b261077d565b14155b80156106e5575060023360009081526001602052604090205460ff1660038111156106e2576106e261077d565b14155b1561070557336000908152600160205260409020805460ff191660031790555b6040516001600160a01b0383169033907ff6dc2d2f829717069fd56cdab0637cfa2783715dda0e387a1f17247bbebdcdd390600090a35050565b80356001600160a01b038116811461075657600080fd5b919050565b60006020828403121561076d57600080fd5b6107768261073f565b9392505050565b634e487b7160e01b600052602160045260246000fd5b60208101600483106107b557634e487b7160e01b600052602160045260246000fd5b91905290565b600080604083850312156107ce57600080fd5b6107d78361073f565b91506107e56020840161073f565b90509250929050565b60208082526010908201526f10591b5a5b881d5b9a5c5d595b595b9d60821b60408201526060019056fea2646970667358221220045f5ae88287b291397778f5261f8c89883f4a257f46c6f999acef2425faa29564736f6c63430008150033",
  "immutableReferences": {},
  "source": "// SPDX-License-Identifier: MIT\npragma solidity ^0.8.21;\n\n/**\n * @title ControleAcces\n * @notice Gère les rôles (Admin, Secrétaire, Médecin, Patient) et les permissions d'accès.\n * @dev L'authentification demandée dans le diagramme UML de cas d'utilisation est garantie nativement par la cryptographie de la blockchain via `msg.sender`.\n */\ncontract ControleAcces {\n    \n    /// @notice Définition des différents rôles du système selon le diagramme de classes\n    enum Role { Admin, Secretaire, Medecin, Patient }\n    \n    /// @notice Adresse de l'administrateur système (déployeur du contrat)\n    address public admin;\n    \n    // --- Mappings (Stockage d'état) ---\n    mapping(address => Role) public roles;\n    mapping(address => bool) public medecinsCertifies;\n    mapping(address => bool) public secretairesActifs;\n    \n    // autorisations[patient][medecin] = true/false\n    mapping(address => mapping(address => bool)) public autorisations;\n    \n    // --- Événements (Events) pour tracer les actions sur la blockchain (Essentiel pour une DApp pro) ---\n    event SecretaireEnregistre(address indexed secretaire);\n    event SecretaireDesactive(address indexed secretaire);\n    event MedecinCertifie(address indexed medecin);\n    event MedecinDesactive(address indexed medecin);\n    event AccesAutorise(address indexed patient, address indexed medecin);\n    event AccesRetire(address indexed patient, address indexed medecin);\n    \n    // --- Erreurs Personnalisées (Custom Errors) pour optimiser grandement le coût en Gas ---\n    error AccesRefuse(string raison);\n    error AdresseInvalide();\n    error NonCertifie(address medecin);\n\n    // --- Modificateurs ---\n    modifier seulementAdmin() {\n        if (msg.sender != admin) revert AccesRefuse(\"Admin uniquement\");\n        _;\n    }\n    \n    modifier seulementSecretaire() {\n        if (!secretairesActifs[msg.sender]) revert AccesRefuse(\"Secretaire uniquement\");\n        _;\n    }\n\n    modifier adresseValide(address _adresse) {\n        if (_adresse == address(0)) revert AdresseInvalide();\n        _;\n    }\n\n    /**\n     * @notice Initialise le contrat et assigne le rôle Admin au déployeur.\n     */\n    constructor() {\n        admin = 0xcCe9F083A7EeeB0d50Cc2819dD17a2CEFAd363C6;\n        roles[0xcCe9F083A7EeeB0d50Cc2819dD17a2CEFAd363C6] = Role.Admin;\n        roles[msg.sender] = Role.Admin;\n    }\n    \n    /**\n     * @notice Enregistre un nouveau secrétaire.\n     * @param _secretaire L'adresse du secrétaire.\n     */\n    function enregistrerSecretaire(address _secretaire) external seulementAdmin adresseValide(_secretaire) {\n        secretairesActifs[_secretaire] = true;\n        roles[_secretaire] = Role.Secretaire;\n        emit SecretaireEnregistre(_secretaire);\n    }\n    \n    /**\n     * @notice Désactive un secrétaire existant.\n     * @param _secretaire L'adresse du secrétaire.\n     */\n    function desactiverSecretaire(address _secretaire) external seulementAdmin adresseValide(_secretaire) {\n        secretairesActifs[_secretaire] = false;\n        // On conserve son rôle précédent dans l'historique mais on le désactive via secretairesActifs\n        emit SecretaireDesactive(_secretaire);\n    }\n    \n    /**\n     * @notice Certifie un médecin pour qu'il puisse exercer sur la plateforme.\n     * @param _medecin L'adresse du médecin.\n     */\n    function certifierMedecin(address _medecin) external seulementAdmin adresseValide(_medecin) {\n        medecinsCertifies[_medecin] = true;\n        roles[_medecin] = Role.Medecin;\n        emit MedecinCertifie(_medecin);\n    }\n    \n    /**\n     * @notice Désactive/Révoque la certification d'un médecin.\n     * @param _medecin L'adresse du médecin.\n     */\n    function desactiverMedecin(address _medecin) external seulementAdmin adresseValide(_medecin) {\n        medecinsCertifies[_medecin] = false;\n        emit MedecinDesactive(_medecin);\n    }\n    \n    /**\n     * @notice Le patient autorise un médecin certifié à consulter/modifier son dossier.\n     * @param _medecin L'adresse du médecin.\n     */\n    function autoriserAcces(address _medecin) external adresseValide(_medecin) {\n        if (!medecinsCertifies[_medecin]) revert NonCertifie(_medecin);\n        // Authentification implicite : msg.sender = le patient en cours\n        autorisations[msg.sender][_medecin] = true;\n        \n        // Assigne le rôle Patient s'il n'avait pas de rôle préalable\n        if (roles[msg.sender] != Role.Admin && roles[msg.sender] != Role.Secretaire && roles[msg.sender] != Role.Medecin) {\n            roles[msg.sender] = Role.Patient;\n        }\n        emit AccesAutorise(msg.sender, _medecin);\n    }\n    \n    /**\n     * @notice Le patient retire l'accès à un médecin.\n     * @param _medecin L'adresse du médecin.\n     */\n    function retirerAcces(address _medecin) external adresseValide(_medecin) {\n        autorisations[msg.sender][_medecin] = false;\n        emit AccesRetire(msg.sender, _medecin);\n    }\n    \n    /**\n     * @notice Vérifie si un médecin a reçu l'autorisation explicite d'un patient.\n     * @param _patient L'adresse du patient.\n     * @param _medecin L'adresse du médecin.\n     * @return bool True si autorisé par le patient, sinon false.\n     */\n    function droitAcces(address _patient, address _medecin) external view returns (bool) {\n        return autorisations[_patient][_medecin];\n    }\n    \n    /**\n     * @notice Récupère le rôle d'une adresse donnée.\n     * @param _adresse L'adresse à interroger.\n     * @return Role Le rôle de l'adresse.\n     */\n    function getRole(address _adresse) external view returns (Role) {\n        return roles[_adresse];\n    }\n}",
  "sourcePath": "C:\\Users\\hp\\Desktop\\medical-blockchain\\contracts\\ControleAcces.sol",
  "compiler": {
    "name": "solc",
    "version": "0.8.21+commit.d9974bed.Emscripten.clang"
  },
  "schemaVersion": "3.4.16",
  "updatedAt": "2026-05-07T18:17:40.924Z",
  "networkType": "ethereum",
  "devdoc": {
    "details": "L'authentification demandée dans le diagramme UML de cas d'utilisation est garantie nativement par la cryptographie de la blockchain via `msg.sender`.",
    "kind": "dev",
    "methods": {
      "autoriserAcces(address)": {
        "params": {
          "_medecin": "L'adresse du médecin."
        }
      },
      "certifierMedecin(address)": {
        "params": {
          "_medecin": "L'adresse du médecin."
        }
      },
      "desactiverMedecin(address)": {
        "params": {
          "_medecin": "L'adresse du médecin."
        }
      },
      "desactiverSecretaire(address)": {
        "params": {
          "_secretaire": "L'adresse du secrétaire."
        }
      },
      "droitAcces(address,address)": {
        "params": {
          "_medecin": "L'adresse du médecin.",
          "_patient": "L'adresse du patient."
        },
        "returns": {
          "_0": "bool True si autorisé par le patient, sinon false."
        }
      },
      "enregistrerSecretaire(address)": {
        "params": {
          "_secretaire": "L'adresse du secrétaire."
        }
      },
      "getRole(address)": {
        "params": {
          "_adresse": "L'adresse à interroger."
        },
        "returns": {
          "_0": "Role Le rôle de l'adresse."
        }
      },
      "retirerAcces(address)": {
        "params": {
          "_medecin": "L'adresse du médecin."
        }
      }
    },
    "title": "ControleAcces",
    "version": 1
  },
  "userdoc": {
    "kind": "user",
    "methods": {
      "admin()": {
        "notice": "Adresse de l'administrateur système (déployeur du contrat)"
      },
      "autoriserAcces(address)": {
        "notice": "Le patient autorise un médecin certifié à consulter/modifier son dossier."
      },
      "certifierMedecin(address)": {
        "notice": "Certifie un médecin pour qu'il puisse exercer sur la plateforme."
      },
      "constructor": {
        "notice": "Initialise le contrat et assigne le rôle Admin au déployeur."
      },
      "desactiverMedecin(address)": {
        "notice": "Désactive/Révoque la certification d'un médecin."
      },
      "desactiverSecretaire(address)": {
        "notice": "Désactive un secrétaire existant."
      },
      "droitAcces(address,address)": {
        "notice": "Vérifie si un médecin a reçu l'autorisation explicite d'un patient."
      },
      "enregistrerSecretaire(address)": {
        "notice": "Enregistre un nouveau secrétaire."
      },
      "getRole(address)": {
        "notice": "Récupère le rôle d'une adresse donnée."
      },
      "retirerAcces(address)": {
        "notice": "Le patient retire l'accès à un médecin."
      }
    },
    "notice": "Gère les rôles (Admin, Secrétaire, Médecin, Patient) et les permissions d'accès.",
    "version": 1
  }
}