{
  "contractName": "ControleAcces",
  "abi": [
    {
      "inputs": [],
      "stateMutability": "nonpayable",
      "type": "constructor"
    },
    {
      "inputs": [],
      "name": "admin",
      "outputs": [
        {
          "internalType": "address",
          "name": "",
          "type": "address"
        }
      ],
      "stateMutability": "view",
      "type": "function",
      "constant": true
    },
    {
      "inputs": [
        {
          "internalType": "address",
          "name": "",
          "type": "address"
        },
        {
          "internalType": "address",
          "name": "",
          "type": "address"
        }
      ],
      "name": "autorisations",
      "outputs": [
        {
          "internalType": "bool",
          "name": "",
          "type": "bool"
        }
      ],
      "stateMutability": "view",
      "type": "function",
      "constant": true
    },
    {
      "inputs": [
        {
          "internalType": "address",
          "name": "",
          "type": "address"
        }
      ],
      "name": "medecinsCertifies",
      "outputs": [
        {
          "internalType": "bool",
          "name": "",
          "type": "bool"
        }
      ],
      "stateMutability": "view",
      "type": "function",
      "constant": true
    },
    {
      "inputs": [
        {
          "internalType": "address",
          "name": "",
          "type": "address"
        }
      ],
      "name": "roles",
      "outputs": [
        {
          "internalType": "enum ControleAcces.Role",
          "name": "",
          "type": "uint8"
        }
      ],
      "stateMutability": "view",
      "type": "function",
      "constant": true
    },
    {
      "inputs": [
        {
          "internalType": "address",
          "name": "",
          "type": "address"
        }
      ],
      "name": "secretairesActifs",
      "outputs": [
        {
          "internalType": "bool",
          "name": "",
          "type": "bool"
        }
      ],
      "stateMutability": "view",
      "type": "function",
      "constant": true
    },
    {
      "inputs": [
        {
          "internalType": "address",
          "name": "_secretaire",
          "type": "address"
        }
      ],
      "name": "enregistrerSecretaire",
      "outputs": [],
      "stateMutability": "nonpayable",
      "type": "function"
    },
    {
      "inputs": [
        {
          "internalType": "address",
          "name": "_secretaire",
          "type": "address"
        }
      ],
      "name": "desactiverSecretaire",
      "outputs": [],
      "stateMutability": "nonpayable",
      "type": "function"
    },
    {
      "inputs": [
        {
          "internalType": "address",
          "name": "_medecin",
          "type": "address"
        }
      ],
      "name": "certifierMedecin",
      "outputs": [],
      "stateMutability": "nonpayable",
      "type": "function"
    },
    {
      "inputs": [
        {
          "internalType": "address",
          "name": "_medecin",
          "type": "address"
        }
      ],
      "name": "desactiverMedecin",
      "outputs": [],
      "stateMutability": "nonpayable",
      "type": "function"
    },
    {
      "inputs": [
        {
          "internalType": "address",
          "name": "_medecin",
          "type": "address"
        }
      ],
      "name": "autoriserAcces",
      "outputs": [],
      "stateMutability": "nonpayable",
      "type": "function"
    },
    {
      "inputs": [
        {
          "internalType": "address",
          "name": "_medecin",
          "type": "address"
        }
      ],
      "name": "retirerAcces",
      "outputs": [],
      "stateMutability": "nonpayable",
      "type": "function"
    },
    {
      "inputs": [
        {
          "internalType": "address",
          "name": "_patient",
          "type": "address"
        },
        {
          "internalType": "address",
          "name": "_medecin",
          "type": "address"
        }
      ],
      "name": "droitAcces",
      "outputs": [
        {
          "internalType": "bool",
          "name": "",
          "type": "bool"
        }
      ],
      "stateMutability": "view",
      "type": "function",
      "constant": true
    },
    {
      "inputs": [
        {
          "internalType": "address",
          "name": "_adresse",
          "type": "address"
        }
      ],
      "name": "getRole",
      "outputs": [
        {
          "internalType": "enum ControleAcces.Role",
          "name": "",
          "type": "uint8"
        }
      ],
      "stateMutability": "view",
      "type": "function",
      "constant": true
    }
  ],
  "bytecode": "0x608060405234801561001057600080fd5b5060008054336001600160a01b0319909116811782558152600160205260409020805460ff191690556105ca806100486000396000f3fe608060405234801561001057600080fd5b50600436106100cf5760003560e01c80636f9f87361161008c578063b6caedb911610066578063b6caedb914610224578063f7cfe02c14610260578063f851a44014610283578063fffbd583146102ae57600080fd5b80636f9f8736146101a05780638bd4b8d7146101d3578063993746421461020157600080fd5b806313c64997146100d45780632381b7d71461011257806331cf33881461012557806332fea32b14610138578063442767331461014b5780636d1533491461018d575b600080fd5b6101106100e23660046104e0565b3360009081526004602090815260408083206001600160a01b0394909416835292905220805460ff19169055565b005b6101106101203660046104e0565b6102c1565b6101106101333660046104e0565b610334565b6101106101463660046104e0565b61039e565b6101776101593660046104e0565b6001600160a01b031660009081526001602052604090205460ff1690565b6040516101849190610502565b60405180910390f35b61011061019b3660046104e0565b6103e9565b6101c36101ae3660046104e0565b60026020526000908152604090205460ff1681565b6040519015158152602001610184565b6101c36101e136600461052a565b600460209081526000928352604080842090915290825290205460ff1681565b61017761020f3660046104e0565b60016020526000908152604090205460ff1681565b6101c361023236600461052a565b6001600160a01b03918216600090815260046020908152604080832093909416825291909152205460ff1690565b6101c361026e3660046104e0565b60036020526000908152604090205460ff1681565b600054610296906001600160a01b031681565b6040516001600160a01b039091168152602001610184565b6101106102bc3660046104e0565b610434565b6000546001600160a01b031633146102f45760405162461bcd60e51b81526004016102eb9061055d565b60405180910390fd5b6001600160a01b03811660009081526003602090815260408083208054600160ff199182168117909255928190529220805490911682805b021790555050565b6000546001600160a01b0316331461035e5760405162461bcd60e51b81526004016102eb9061055d565b6001600160a01b03811660009081526002602081815260408084208054600160ff199182168117909255928190529320805492939092909116908361032c565b6000546001600160a01b031633146103c85760405162461bcd60e51b81526004016102eb9061055d565b6001600160a01b03166000908152600360205260409020805460ff19169055565b6000546001600160a01b031633146104135760405162461bcd60e51b81526004016102eb9061055d565b6001600160a01b03166000908152600260205260409020805460ff19169055565b6001600160a01b03811660009081526002602052604090205460ff166104935760405162461bcd60e51b81526020600482015260146024820152734d65646563696e206e6f6e20636572746966696560601b60448201526064016102eb565b3360009081526004602090815260408083206001600160a01b0394909416835292905220805460ff19166001179055565b80356001600160a01b03811681146104db57600080fd5b919050565b6000602082840312156104f257600080fd5b6104fb826104c4565b9392505050565b602081016004831061052457634e487b7160e01b600052602160045260246000fd5b91905290565b6000806040838503121561053d57600080fd5b610546836104c4565b9150610554602084016104c4565b90509250929050565b6020808252601e908201527f4163636573207265667573653a2041646d696e20756e697175656d656e74000060408201526060019056fea26469706673582212208c0da7b174ca963ea76105fa49bfbaf7c347567fbe38e6bfe17b60fd8e49250764736f6c63430008150033",
  "immutableReferences": {},
  "source": "// SPDX-License-Identifier: MIT\r\npragma solidity ^0.8.21;\r\n\r\ncontract ControleAcces {\r\n    \r\n    enum Role { Admin, Secretaire, Medecin, Patient }\r\n    \r\n    address public admin;\r\n    \r\n    mapping(address => Role) public roles;\r\n    mapping(address => bool) public medecinsCertifies;\r\n    mapping(address => bool) public secretairesActifs;\r\n    mapping(address => mapping(address => bool)) public autorisations;\r\n    \r\n    modifier seulementAdmin() {\r\n        require(msg.sender == admin, \"Acces refuse: Admin uniquement\");\r\n        _;\r\n    }\r\n    \r\n    modifier seulementSecretaire() {\r\n        require(secretairesActifs[msg.sender], \"Acces refuse: Secretaire uniquement\");\r\n        _;\r\n    }\r\n    \r\n    constructor() {\r\n        admin = msg.sender;\r\n        roles[msg.sender] = Role.Admin;\r\n    }\r\n    \r\n    function enregistrerSecretaire(address _secretaire) public seulementAdmin {\r\n        secretairesActifs[_secretaire] = true;\r\n        roles[_secretaire] = Role.Secretaire;\r\n    }\r\n    \r\n    function desactiverSecretaire(address _secretaire) public seulementAdmin {\r\n        secretairesActifs[_secretaire] = false;\r\n    }\r\n    \r\n    function certifierMedecin(address _medecin) public seulementAdmin {\r\n        medecinsCertifies[_medecin] = true;\r\n        roles[_medecin] = Role.Medecin;\r\n    }\r\n    \r\n    function desactiverMedecin(address _medecin) public seulementAdmin {\r\n        medecinsCertifies[_medecin] = false;\r\n    }\r\n    \r\n    function autoriserAcces(address _medecin) public {\r\n        require(medecinsCertifies[_medecin], \"Medecin non certifie\");\r\n        autorisations[msg.sender][_medecin] = true;\r\n    }\r\n    \r\n    function retirerAcces(address _medecin) public {\r\n        autorisations[msg.sender][_medecin] = false;\r\n    }\r\n    \r\n    function droitAcces(address _patient, address _medecin) public view returns (bool) {\r\n        return autorisations[_patient][_medecin];\r\n    }\r\n    \r\n    function getRole(address _adresse) public view returns (Role) {\r\n        return roles[_adresse];\r\n    }\r\n}",
  "sourcePath": "C:\\Users\\hp\\Desktop\\medical-blockchain\\contracts\\ControleAcces.sol",
  "compiler": {
    "name": "solc",
    "version": "0.8.21+commit.d9974bed.Emscripten.clang"
  },
  "schemaVersion": "3.4.16",
  "updatedAt": "2026-04-28T21:28:55.765Z",
  "networkType": "ethereum",
  "devdoc": {
    "kind": "dev",
    "methods": {},
    "version": 1
  },
  "userdoc": {
    "kind": "user",
    "methods": {},
    "version": 1
  }
}