{
  "contractName": "DossierMedical",
  "abi": [
    {
      "inputs": [
        {
          "internalType": "address",
          "name": "_controleAcces",
          "type": "address"
        }
      ],
      "stateMutability": "nonpayable",
      "type": "constructor"
    },
    {
      "inputs": [
        {
          "internalType": "address",
          "name": "_patient",
          "type": "address"
        },
        {
          "internalType": "string",
          "name": "_nom",
          "type": "string"
        },
        {
          "internalType": "string",
          "name": "_prenom",
          "type": "string"
        },
        {
          "internalType": "string",
          "name": "_dateNaissance",
          "type": "string"
        },
        {
          "internalType": "string",
          "name": "_tel",
          "type": "string"
        },
        {
          "internalType": "string",
          "name": "_email",
          "type": "string"
        },
        {
          "internalType": "string",
          "name": "_cin",
          "type": "string"
        }
      ],
      "name": "creerDossier",
      "outputs": [],
      "stateMutability": "nonpayable",
      "type": "function"
    },
    {
      "inputs": [
        {
          "internalType": "uint256",
          "name": "_dossierId",
          "type": "uint256"
        },
        {
          "internalType": "string",
          "name": "_tel",
          "type": "string"
        },
        {
          "internalType": "string",
          "name": "_email",
          "type": "string"
        }
      ],
      "name": "modifierInfosAdmin",
      "outputs": [],
      "stateMutability": "nonpayable",
      "type": "function"
    },
    {
      "inputs": [
        {
          "internalType": "uint256",
          "name": "_dossierId",
          "type": "uint256"
        },
        {
          "internalType": "enum DossierMedical.TypeNote",
          "name": "_type",
          "type": "uint8"
        },
        {
          "internalType": "string",
          "name": "_contenu",
          "type": "string"
        }
      ],
      "name": "ajouterNote",
      "outputs": [],
      "stateMutability": "nonpayable",
      "type": "function"
    },
    {
      "inputs": [
        {
          "internalType": "uint256",
          "name": "_dossierId",
          "type": "uint256"
        }
      ],
      "name": "getDossier",
      "outputs": [
        {
          "components": [
            {
              "internalType": "uint256",
              "name": "dossierId",
              "type": "uint256"
            },
            {
              "internalType": "address",
              "name": "patientAdresse",
              "type": "address"
            },
            {
              "internalType": "string",
              "name": "nom",
              "type": "string"
            },
            {
              "internalType": "string",
              "name": "prenom",
              "type": "string"
            },
            {
              "internalType": "string",
              "name": "dateNaissance",
              "type": "string"
            },
            {
              "internalType": "string",
              "name": "telephone",
              "type": "string"
            },
            {
              "internalType": "string",
              "name": "email",
              "type": "string"
            },
            {
              "internalType": "string",
              "name": "cin",
              "type": "string"
            },
            {
              "internalType": "bool",
              "name": "estActif",
              "type": "bool"
            }
          ],
          "internalType": "struct DossierMedical.Dossier",
          "name": "",
          "type": "tuple"
        }
      ],
      "stateMutability": "view",
      "type": "function",
      "constant": true
    },
    {
      "inputs": [],
      "name": "getMesDossiers",
      "outputs": [
        {
          "internalType": "uint256[]",
          "name": "",
          "type": "uint256[]"
        }
      ],
      "stateMutability": "view",
      "type": "function",
      "constant": true
    },
    {
      "inputs": [
        {
          "internalType": "uint256",
          "name": "_dossierId",
          "type": "uint256"
        }
      ],
      "name": "getNotes",
      "outputs": [
        {
          "components": [
            {
              "internalType": "uint256",
              "name": "noteId",
              "type": "uint256"
            },
            {
              "internalType": "uint256",
              "name": "dossierId",
              "type": "uint256"
            },
            {
              "internalType": "address",
              "name": "adresseMedecin",
              "type": "address"
            },
            {
              "internalType": "enum DossierMedical.TypeNote",
              "name": "typeNote",
              "type": "uint8"
            },
            {
              "internalType": "string",
              "name": "contenu",
              "type": "string"
            },
            {
              "internalType": "uint256",
              "name": "timestamp",
              "type": "uint256"
            }
          ],
          "internalType": "struct DossierMedical.Note[]",
          "name": "",
          "type": "tuple[]"
        }
      ],
      "stateMutability": "view",
      "type": "function",
      "constant": true
    }
  ],
  "bytecode": "0x60806040526000600155600060025534801561001a57600080fd5b506040516115b93803806115b98339810160408190526100399161005e565b600080546001600160a01b0319166001600160a01b039290921691909117905561008e565b60006020828403121561007057600080fd5b81516001600160a01b038116811461008757600080fd5b9392505050565b61151c8061009d6000396000f3fe608060405234801561001057600080fd5b50600436106100625760003560e01c80635061a95c1461006757806357f42e8d1461007c5780638f172b1f1461008f578063b46d3008146100b8578063c6880324146100cd578063c9b9307a146100e0575b600080fd5b61007a610075366004610eab565b610100565b005b61007a61008a366004610f24565b610303565b6100a261009d36600461102b565b6104f6565b6040516100af919061108a565b60405180910390f35b6100c0610a54565b6040516100af9190611183565b61007a6100db3660046111c7565b610ab5565b6100f36100ee36600461102b565b610bd0565b6040516100af9190611240565b600083815260036020526040808220600101549154905163b6caedb960e01b81526001600160a01b039283166004820181905233602483015286939092169063b6caedb990604401602060405180830381865afa158015610165573d6000803e3d6000fd5b505050506040513d601f19601f82011682018060405250810190610189919061130a565b6101ed5760405162461bcd60e51b815260206004820152602a60248201527f4163636573207265667573653a206175746f7269736174696f6e2070617469656044820152696e74207265717569736560b01b60648201526084015b60405180910390fd5b600280549060006101fd83611333565b9190505550600460008681526020019081526020016000206040518060c001604052806002548152602001878152602001336001600160a01b0316815260200186600481111561024f5761024f61122a565b8152602080820187905242604092830152835460018181018655600095865294829020845160059092020190815590830151938101939093558101516002830180546001600160a01b039092166001600160a01b03198316811782556060840151939493926001600160a81b03191617600160a01b8360048111156102d6576102d661122a565b0217905550608082015160038201906102ef90826113e3565b5060a0820151816004015550505050505050565b600054604051633df3f80b60e21b81523360048201526001600160a01b039091169063f7cfe02c90602401602060405180830381865afa15801561034b573d6000803e3d6000fd5b505050506040513d601f19601f8201168201806040525081019061036f919061130a565b61038b5760405162461bcd60e51b81526004016101e4906114a3565b6001805490600061039b83611333565b90915550506040805161012081018252600180548083526001600160a01b038b811660208086019182528587018d8152606087018d9052608087018c905260a087018b905260c087018a905260e087018990526101008701869052600094855260039091529590922084518155915192820180546001600160a01b03191693909116929092179091559151909190600282019061043890826113e3565b506060820151600382019061044d90826113e3565b506080820151600482019061046290826113e3565b5060a0820151600582019061047790826113e3565b5060c0820151600682019061048c90826113e3565b5060e082015160078201906104a190826113e3565b5061010091909101516008909101805460ff1916911515919091179055505050506001600160a01b03929092166000908152600560209081526040822060018054825491820183559184529190922001555050565b6105506040518061012001604052806000815260200160006001600160a01b031681526020016060815260200160608152602001606081526020016060815260200160608152602001606081526020016000151581525090565b6000828152600360205260409020600101546001600160a01b0316338114806105e8575060005460405163b6caedb960e01b81526001600160a01b0383811660048301523360248301529091169063b6caedb990604401602060405180830381865afa1580156105c4573d6000803e3d6000fd5b505050506040513d601f19601f820116820180604052508101906105e8919061130a565b8061065a5750600054604051633df3f80b60e21b81523360048201526001600160a01b039091169063f7cfe02c90602401602060405180830381865afa158015610636573d6000803e3d6000fd5b505050506040513d601f19601f8201168201806040525081019061065a919061130a565b6106955760405162461bcd60e51b815260206004820152600c60248201526b41636365732072656675736560a01b60448201526064016101e4565b6000838152600360209081526040918290208251610120810184528154815260018201546001600160a01b03169281019290925260028101805492939192918401916106e09061135a565b80601f016020809104026020016040519081016040528092919081815260200182805461070c9061135a565b80156107595780601f1061072e57610100808354040283529160200191610759565b820191906000526020600020905b81548152906001019060200180831161073c57829003601f168201915b505050505081526020016003820180546107729061135a565b80601f016020809104026020016040519081016040528092919081815260200182805461079e9061135a565b80156107eb5780601f106107c0576101008083540402835291602001916107eb565b820191906000526020600020905b8154815290600101906020018083116107ce57829003601f168201915b505050505081526020016004820180546108049061135a565b80601f01602080910402602001604051908101604052809291908181526020018280546108309061135a565b801561087d5780601f106108525761010080835404028352916020019161087d565b820191906000526020600020905b81548152906001019060200180831161086057829003601f168201915b505050505081526020016005820180546108969061135a565b80601f01602080910402602001604051908101604052809291908181526020018280546108c29061135a565b801561090f5780601f106108e45761010080835404028352916020019161090f565b820191906000526020600020905b8154815290600101906020018083116108f257829003601f168201915b505050505081526020016006820180546109289061135a565b80601f01602080910402602001604051908101604052809291908181526020018280546109549061135a565b80156109a15780601f10610976576101008083540402835291602001916109a1565b820191906000526020600020905b81548152906001019060200180831161098457829003601f168201915b505050505081526020016007820180546109ba9061135a565b80601f01602080910402602001604051908101604052809291908181526020018280546109e69061135a565b8015610a335780601f10610a0857610100808354040283529160200191610a33565b820191906000526020600020905b815481529060010190602001808311610a1657829003601f168201915b50505091835250506008919091015460ff1615156020909101529392505050565b33600090815260056020908152604091829020805483518184028101840190945280845260609392830182828015610aab57602002820191906000526020600020905b815481526020019060010190808311610a97575b5050505050905090565b600054604051633df3f80b60e21b81523360048201526001600160a01b039091169063f7cfe02c90602401602060405180830381865afa158015610afd573d6000803e3d6000fd5b505050506040513d601f19601f82011682018060405250810190610b21919061130a565b610b3d5760405162461bcd60e51b81526004016101e4906114a3565b60008381526003602052604090206008015460ff16610b935760405162461bcd60e51b8152602060048201526012602482015271111bdcdcda595c881a5b995e1a5cdd185b9d60721b60448201526064016101e4565b6000838152600360205260409020600501610bae83826113e3565b506000838152600360205260409020600601610bca82826113e3565b50505050565b6000818152600360205260409020600101546060906001600160a01b031633811480610c6b575060005460405163b6caedb960e01b81526001600160a01b0383811660048301523360248301529091169063b6caedb990604401602060405180830381865afa158015610c47573d6000803e3d6000fd5b505050506040513d601f19601f82011682018060405250810190610c6b919061130a565b610ca65760405162461bcd60e51b815260206004820152600c60248201526b41636365732072656675736560a01b60448201526064016101e4565b600083815260046020908152604080832080548251818502810185019093528083529193909284015b82821015610dfc5760008481526020908190206040805160c081018252600586029092018054835260018101549383019390935260028301546001600160a01b038116918301919091529091906060830190600160a01b900460ff166004811115610d3c57610d3c61122a565b6004811115610d4d57610d4d61122a565b8152602001600382018054610d619061135a565b80601f0160208091040260200160405190810160405280929190818152602001828054610d8d9061135a565b8015610dda5780601f10610daf57610100808354040283529160200191610dda565b820191906000526020600020905b815481529060010190602001808311610dbd57829003601f168201915b5050505050815260200160048201548152505081526020019060010190610ccf565b50505050915050919050565b634e487b7160e01b600052604160045260246000fd5b600082601f830112610e2f57600080fd5b813567ffffffffffffffff80821115610e4a57610e4a610e08565b604051601f8301601f19908116603f01168101908282118183101715610e7257610e72610e08565b81604052838152866020858801011115610e8b57600080fd5b836020870160208301376000602085830101528094505050505092915050565b600080600060608486031215610ec057600080fd5b83359250602084013560058110610ed657600080fd5b9150604084013567ffffffffffffffff811115610ef257600080fd5b610efe86828701610e1e565b9150509250925092565b80356001600160a01b0381168114610f1f57600080fd5b919050565b600080600080600080600060e0888a031215610f3f57600080fd5b610f4888610f08565b9650602088013567ffffffffffffffff80821115610f6557600080fd5b610f718b838c01610e1e565b975060408a0135915080821115610f8757600080fd5b610f938b838c01610e1e565b965060608a0135915080821115610fa957600080fd5b610fb58b838c01610e1e565b955060808a0135915080821115610fcb57600080fd5b610fd78b838c01610e1e565b945060a08a0135915080821115610fed57600080fd5b610ff98b838c01610e1e565b935060c08a013591508082111561100f57600080fd5b5061101c8a828b01610e1e565b91505092959891949750929550565b60006020828403121561103d57600080fd5b5035919050565b6000815180845260005b8181101561106a5760208185018101518683018201520161104e565b506000602082860101526020601f19601f83011685010191505092915050565b6020815281516020820152600060208301516110b160408401826001600160a01b03169052565b5060408301516101208060608501526110ce610140850183611044565b91506060850151601f19808685030160808701526110ec8483611044565b935060808701519150808685030160a08701526111098483611044565b935060a08701519150808685030160c08701526111268483611044565b935060c08701519150808685030160e08701526111438483611044565b935060e087015191506101008187860301818801526111628584611044565b945080880151925050506111798286018215159052565b5090949350505050565b6020808252825182820181905260009190848201906040850190845b818110156111bb5783518352928401929184019160010161119f565b50909695505050505050565b6000806000606084860312156111dc57600080fd5b83359250602084013567ffffffffffffffff808211156111fb57600080fd5b61120787838801610e1e565b9350604086013591508082111561121d57600080fd5b50610efe86828701610e1e565b634e487b7160e01b600052602160045260246000fd5b602080825282518282018190526000919060409081850190600581811b8701840188860187805b858110156112fa578a8403603f19018752825180518552898101518a860152888101516001600160a01b03168986015260608082015160c091908881106112bc57634e487b7160e01b86526021600452602486fd5b908701526080828101518188018390526112d883890182611044565b60a0948501519890940197909752505096890196935091880191600101611267565b50919a9950505050505050505050565b60006020828403121561131c57600080fd5b8151801515811461132c57600080fd5b9392505050565b60006001820161135357634e487b7160e01b600052601160045260246000fd5b5060010190565b600181811c9082168061136e57607f821691505b60208210810361138e57634e487b7160e01b600052602260045260246000fd5b50919050565b601f8211156113de57600081815260208120601f850160051c810160208610156113bb5750805b601f850160051c820191505b818110156113da578281556001016113c7565b5050505b505050565b815167ffffffffffffffff8111156113fd576113fd610e08565b6114118161140b845461135a565b84611394565b602080601f831160018114611446576000841561142e5750858301515b600019600386901b1c1916600185901b1785556113da565b600085815260208120601f198616915b8281101561147557888601518255948401946001909101908401611456565b50858210156114935787850151600019600388901b60f8161c191681555b5050505050600190811b01905550565b60208082526023908201527f4163636573207265667573653a205365637265746169726520756e697175656d604082015262195b9d60ea1b60608201526080019056fea26469706673582212201de54907125f971c9ebcbb15ea689bc096f9c205b09e891d0c20a6746b5bc02264736f6c63430008150033",
  "immutableReferences": {},
  "source": "// SPDX-License-Identifier: MIT\r\npragma solidity ^0.8.21;\r\n\r\nimport \"./ControleAcces.sol\";\r\n\r\ncontract DossierMedical {\r\n\r\n    enum TypeNote { Ordonnance, Texte, Lettre, Avis, Analyse }\r\n\r\n    struct Note {\r\n        uint noteId;\r\n        uint dossierId;\r\n        address adresseMedecin;\r\n        TypeNote typeNote;\r\n        string contenu;\r\n        uint timestamp;\r\n    }\r\n\r\n    struct Dossier {\r\n        uint dossierId;\r\n        address patientAdresse;\r\n        string nom;\r\n        string prenom;\r\n        string dateNaissance;\r\n        string telephone;\r\n        string email;\r\n        string cin;\r\n        bool estActif;\r\n    }\r\n\r\n    ControleAcces private controleAcces;\r\n\r\n    uint private compteurDossier = 0;\r\n    uint private compteurNote = 0;\r\n\r\n    mapping(uint => Dossier) private dossiers;\r\n    mapping(uint => Note[]) private notesDossier;\r\n    mapping(address => uint[]) private dossiersDuPatient;\r\n\r\n    constructor(address _controleAcces) {\r\n        controleAcces = ControleAcces(_controleAcces);\r\n    }\r\n\r\n    modifier seulementSecretaire() {\r\n        require(\r\n            controleAcces.secretairesActifs(msg.sender),\r\n            \"Acces refuse: Secretaire uniquement\"\r\n        );\r\n        _;\r\n    }\r\n\r\n    modifier seulementMedecin(uint _dossierId) {\r\n        address patient = dossiers[_dossierId].patientAdresse;\r\n        require(\r\n            controleAcces.droitAcces(patient, msg.sender),\r\n            \"Acces refuse: autorisation patient requise\"\r\n        );\r\n        _;\r\n    }\r\n\r\n    function creerDossier(\r\n        address _patient,\r\n        string memory _nom,\r\n        string memory _prenom,\r\n        string memory _dateNaissance,\r\n        string memory _tel,\r\n        string memory _email,\r\n        string memory _cin\r\n    ) public seulementSecretaire {\r\n        compteurDossier++;\r\n        dossiers[compteurDossier] = Dossier(\r\n            compteurDossier,\r\n            _patient,\r\n            _nom,\r\n            _prenom,\r\n            _dateNaissance,\r\n            _tel,\r\n            _email,\r\n            _cin,\r\n            true\r\n        );\r\n        dossiersDuPatient[_patient].push(compteurDossier);\r\n    }\r\n\r\n    function modifierInfosAdmin(\r\n        uint _dossierId,\r\n        string memory _tel,\r\n        string memory _email\r\n    ) public seulementSecretaire {\r\n        require(dossiers[_dossierId].estActif, \"Dossier inexistant\");\r\n        dossiers[_dossierId].telephone = _tel;\r\n        dossiers[_dossierId].email = _email;\r\n    }\r\n\r\n    function ajouterNote(\r\n        uint _dossierId,\r\n        TypeNote _type,\r\n        string memory _contenu\r\n    ) public seulementMedecin(_dossierId) {\r\n        compteurNote++;\r\n        notesDossier[_dossierId].push(Note(\r\n            compteurNote,\r\n            _dossierId,\r\n            msg.sender,\r\n            _type,\r\n            _contenu,\r\n            block.timestamp\r\n        ));\r\n    }\r\n\r\n    function getDossier(uint _dossierId) public view returns (Dossier memory) {\r\n        address patient = dossiers[_dossierId].patientAdresse;\r\n        require(\r\n            msg.sender == patient ||\r\n            controleAcces.droitAcces(patient, msg.sender) ||\r\n            controleAcces.secretairesActifs(msg.sender),\r\n            \"Acces refuse\"\r\n        );\r\n        return dossiers[_dossierId];\r\n    }\r\n\r\n    function getMesDossiers() public view returns (uint[] memory) {\r\n        return dossiersDuPatient[msg.sender];\r\n    }\r\n\r\n    function getNotes(uint _dossierId) public view returns (Note[] memory) {\r\n        address patient = dossiers[_dossierId].patientAdresse;\r\n        require(\r\n            msg.sender == patient ||\r\n            controleAcces.droitAcces(patient, msg.sender),\r\n            \"Acces refuse\"\r\n        );\r\n        return notesDossier[_dossierId];\r\n    }\r\n}",
  "sourcePath": "C:\\Users\\hp\\Desktop\\medical-blockchain\\contracts\\DossierMedical.sol",
  "compiler": {
    "name": "solc",
    "version": "0.8.21+commit.d9974bed.Emscripten.clang"
  },
  "schemaVersion": "3.4.16",
  "updatedAt": "2026-04-28T21:28:55.771Z",
  "networkType": "ethereum",
  "devdoc": {
    "kind": "dev",
    "methods": {},
    "version": 1
  },
  "userdoc": {
    "kind": "user",
    "methods": {},
    "version": 1
  }
}