{
  "contractName": "DossierMedical",
  "abi": [
    {
      "inputs": [
        {
          "internalType": "address",
          "name": "_controleAcces",
          "type": "address"
        }
      ],
      "stateMutability": "nonpayable",
      "type": "constructor"
    },
    {
      "inputs": [],
      "name": "AccesRefuseGlobal",
      "type": "error"
    },
    {
      "inputs": [],
      "name": "AccesRefuseMedecin",
      "type": "error"
    },
    {
      "inputs": [],
      "name": "AccesRefuseSecretaire",
      "type": "error"
    },
    {
      "inputs": [],
      "name": "AdressePatientInvalide",
      "type": "error"
    },
    {
      "inputs": [
        {
          "internalType": "uint256",
          "name": "dossierId",
          "type": "uint256"
        }
      ],
      "name": "DossierInexistant",
      "type": "error"
    },
    {
      "anonymous": false,
      "inputs": [
        {
          "indexed": true,
          "internalType": "uint256",
          "name": "dossierId",
          "type": "uint256"
        },
        {
          "indexed": true,
          "internalType": "address",
          "name": "patient",
          "type": "address"
        }
      ],
      "name": "DossierCree",
      "type": "event"
    },
    {
      "anonymous": false,
      "inputs": [
        {
          "indexed": true,
          "internalType": "uint256",
          "name": "dossierId",
          "type": "uint256"
        }
      ],
      "name": "InfosAdministrativesModifiees",
      "type": "event"
    },
    {
      "anonymous": false,
      "inputs": [
        {
          "indexed": true,
          "internalType": "uint256",
          "name": "dossierId",
          "type": "uint256"
        },
        {
          "indexed": true,
          "internalType": "uint256",
          "name": "noteId",
          "type": "uint256"
        },
        {
          "indexed": true,
          "internalType": "address",
          "name": "medecin",
          "type": "address"
        }
      ],
      "name": "NoteAjoutee",
      "type": "event"
    },
    {
      "inputs": [],
      "name": "controleAcces",
      "outputs": [
        {
          "internalType": "contract ControleAcces",
          "name": "",
          "type": "address"
        }
      ],
      "stateMutability": "view",
      "type": "function",
      "constant": true
    },
    {
      "inputs": [
        {
          "internalType": "address",
          "name": "_patient",
          "type": "address"
        },
        {
          "internalType": "string",
          "name": "_nom",
          "type": "string"
        },
        {
          "internalType": "string",
          "name": "_prenom",
          "type": "string"
        },
        {
          "internalType": "string",
          "name": "_dateNaissance",
          "type": "string"
        },
        {
          "internalType": "string",
          "name": "_tel",
          "type": "string"
        },
        {
          "internalType": "string",
          "name": "_email",
          "type": "string"
        },
        {
          "internalType": "string",
          "name": "_cin",
          "type": "string"
        }
      ],
      "name": "creerDossier",
      "outputs": [],
      "stateMutability": "nonpayable",
      "type": "function"
    },
    {
      "inputs": [
        {
          "internalType": "uint256",
          "name": "_dossierId",
          "type": "uint256"
        },
        {
          "internalType": "string",
          "name": "_tel",
          "type": "string"
        },
        {
          "internalType": "string",
          "name": "_email",
          "type": "string"
        }
      ],
      "name": "modifierInfosAdmin",
      "outputs": [],
      "stateMutability": "nonpayable",
      "type": "function"
    },
    {
      "inputs": [
        {
          "internalType": "uint256",
          "name": "_dossierId",
          "type": "uint256"
        },
        {
          "internalType": "enum DossierMedical.TypeNote",
          "name": "_type",
          "type": "uint8"
        },
        {
          "internalType": "string",
          "name": "_contenu",
          "type": "string"
        }
      ],
      "name": "ajouterNote",
      "outputs": [],
      "stateMutability": "nonpayable",
      "type": "function"
    },
    {
      "inputs": [
        {
          "internalType": "uint256",
          "name": "_dossierId",
          "type": "uint256"
        }
      ],
      "name": "getDossier",
      "outputs": [
        {
          "components": [
            {
              "internalType": "uint256",
              "name": "dossierId",
              "type": "uint256"
            },
            {
              "internalType": "address",
              "name": "patientAdresse",
              "type": "address"
            },
            {
              "internalType": "string",
              "name": "nom",
              "type": "string"
            },
            {
              "internalType": "string",
              "name": "prenom",
              "type": "string"
            },
            {
              "internalType": "string",
              "name": "dateNaissance",
              "type": "string"
            },
            {
              "internalType": "string",
              "name": "telephone",
              "type": "string"
            },
            {
              "internalType": "string",
              "name": "email",
              "type": "string"
            },
            {
              "internalType": "string",
              "name": "cin",
              "type": "string"
            },
            {
              "internalType": "bool",
              "name": "estActif",
              "type": "bool"
            }
          ],
          "internalType": "struct DossierMedical.Dossier",
          "name": "",
          "type": "tuple"
        }
      ],
      "stateMutability": "view",
      "type": "function",
      "constant": true
    },
    {
      "inputs": [],
      "name": "getMesDossiers",
      "outputs": [
        {
          "internalType": "uint256[]",
          "name": "",
          "type": "uint256[]"
        }
      ],
      "stateMutability": "view",
      "type": "function",
      "constant": true
    },
    {
      "inputs": [
        {
          "internalType": "uint256",
          "name": "_dossierId",
          "type": "uint256"
        }
      ],
      "name": "getNotes",
      "outputs": [
        {
          "components": [
            {
              "internalType": "uint256",
              "name": "noteId",
              "type": "uint256"
            },
            {
              "internalType": "uint256",
              "name": "dossierId",
              "type": "uint256"
            },
            {
              "internalType": "address",
              "name": "adresseMedecin",
              "type": "address"
            },
            {
              "internalType": "enum DossierMedical.TypeNote",
              "name": "typeNote",
              "type": "uint8"
            },
            {
              "internalType": "string",
              "name": "contenu",
              "type": "string"
            },
            {
              "internalType": "uint256",
              "name": "timestamp",
              "type": "uint256"
            }
          ],
          "internalType": "struct DossierMedical.Note[]",
          "name": "",
          "type": "tuple[]"
        }
      ],
      "stateMutability": "view",
      "type": "function",
      "constant": true
    }
  ],
  "bytecode": "0x608060405234801561001057600080fd5b506040516118cf3803806118cf83398101604081905261002f916100ae565b6001600160a01b0381166100895760405162461bcd60e51b815260206004820152601e60248201527f4164726573736520436f6e74726f6c65416363657320696e76616c6964650000604482015260640160405180910390fd5b600080546001600160a01b0319166001600160a01b03929092169190911790556100de565b6000602082840312156100c057600080fd5b81516001600160a01b03811681146100d757600080fd5b9392505050565b6117e2806100ed6000396000f3fe608060405234801561001057600080fd5b506004361061007d5760003560e01c80638f172b1f1161005b5780638f172b1f146100da578063b46d3008146100fa578063c68803241461010f578063c9b9307a1461012257600080fd5b806305e538d8146100825780635061a95c146100b257806357f42e8d146100c7575b600080fd5b600054610095906001600160a01b031681565b6040516001600160a01b0390911681526020015b60405180910390f35b6100c56100c03660046111ba565b610142565b005b6100c56100d5366004611233565b61040d565b6100ed6100e836600461133a565b61064e565b6040516100a99190611399565b610102610c74565b6040516100a99190611492565b6100c561011d3660046114d6565b610cd5565b61013561013036600461133a565b610e24565b6040516100a9919061154f565b600083815260036020526040902060080154839060ff1615801561017e57506000818152600360205260409020600101546001600160a01b0316155b156101a45760405163e94c830f60e01b8152600481018290526024015b60405180910390fd5b600084815260036020526040808220600101549154905163b6caedb960e01b81526001600160a01b039283166004820181905233602483015287939092169063b6caedb990604401602060405180830381865afa158015610209573d6000803e3d6000fd5b505050506040513d601f19601f8201168201806040525081019061022d9190611619565b15806102a257506000546040516337cfc39b60e11b81523360048201526001600160a01b0390911690636f9f873690602401602060405180830381865afa15801561027c573d6000803e3d6000fd5b505050506040513d601f19601f820116820180604052508101906102a09190611619565b155b156102c05760405163010ec46760e01b815260040160405180910390fd5b600280549060006102d083611642565b919050555060006002549050600460008881526020019081526020016000206040518060c00160405280838152602001898152602001336001600160a01b0316815260200188600481111561032757610327611539565b8152602080820189905242604092830152835460018181018655600095865294829020845160059092020190815590830151938101939093558101516002830180546001600160a01b039092166001600160a01b03198316811782556060840151939493926001600160a81b03191617600160a01b8360048111156103ae576103ae611539565b0217905550608082015160038201906103c790826116ec565b5060a091909101516004909101556040513390829089907fdc829e5987d173880547b10106f9932d48c9fffb587f687055c77484ed4a088090600090a450505050505050565b600054604051633df3f80b60e21b81523360048201526001600160a01b039091169063f7cfe02c90602401602060405180830381865afa158015610455573d6000803e3d6000fd5b505050506040513d601f19601f820116820180604052508101906104799190611619565b610496576040516316b44a8360e11b815260040160405180910390fd5b6001600160a01b0387166104bd576040516321143c2f60e01b815260040160405180910390fd5b600180549060006104cd83611642565b90915550506001805460408051610120810182528281526001600160a01b038b811660208084019182528385018d8152606085018d9052608085018c905260a085018b905260c085018a905260e0850189905261010085018890526000878152600390925294902083518155905195810180546001600160a01b03191696909216959095179055905191929091600282019061056990826116ec565b506060820151600382019061057e90826116ec565b506080820151600482019061059390826116ec565b5060a082015160058201906105a890826116ec565b5060c082015160068201906105bd90826116ec565b5060e082015160078201906105d290826116ec565b5061010091909101516008909101805460ff19169115159190911790556001600160a01b038816600081815260056020908152604080832080546001810182559084529183209091018490555183917f8ddc83f7af379e581ad60cdbccf261da6bf79f79b865dbb17772fee134e7d99a91a35050505050505050565b6106a86040518061012001604052806000815260200160006001600160a01b031681526020016060815260200160608152602001606081526020016060815260200160608152602001606081526020016000151581525090565b600082815260036020526040902060080154829060ff161580156106e457506000818152600360205260409020600101546001600160a01b0316155b156107055760405163e94c830f60e01b81526004810182905260240161019b565b600083815260036020526040808220600101548254915163b6caedb960e01b81526001600160a01b039182166004820181905233602483018190529094908514939092169063b6caedb990604401602060405180830381865afa158015610770573d6000803e3d6000fd5b505050506040513d601f19601f820116820180604052508101906107949190611619565b801561080757506000546040516337cfc39b60e11b81523360048201526001600160a01b0390911690636f9f873690602401602060405180830381865afa1580156107e3573d6000803e3d6000fd5b505050506040513d601f19601f820116820180604052508101906108079190611619565b60008054604051633df3f80b60e21b815233600482015292935090916001600160a01b039091169063f7cfe02c90602401602060405180830381865afa158015610855573d6000803e3d6000fd5b505050506040513d601f19601f820116820180604052508101906108799190611619565b905082158015610887575081155b8015610891575080155b156108af576040516320883a6d60e01b815260040160405180910390fd5b6000878152600360209081526040918290208251610120810184528154815260018201546001600160a01b03169281019290925260028101805492939192918401916108fa90611669565b80601f016020809104026020016040519081016040528092919081815260200182805461092690611669565b80156109735780601f1061094857610100808354040283529160200191610973565b820191906000526020600020905b81548152906001019060200180831161095657829003601f168201915b5050505050815260200160038201805461098c90611669565b80601f01602080910402602001604051908101604052809291908181526020018280546109b890611669565b8015610a055780601f106109da57610100808354040283529160200191610a05565b820191906000526020600020905b8154815290600101906020018083116109e857829003601f168201915b50505050508152602001600482018054610a1e90611669565b80601f0160208091040260200160405190810160405280929190818152602001828054610a4a90611669565b8015610a975780601f10610a6c57610100808354040283529160200191610a97565b820191906000526020600020905b815481529060010190602001808311610a7a57829003601f168201915b50505050508152602001600582018054610ab090611669565b80601f0160208091040260200160405190810160405280929190818152602001828054610adc90611669565b8015610b295780601f10610afe57610100808354040283529160200191610b29565b820191906000526020600020905b815481529060010190602001808311610b0c57829003601f168201915b50505050508152602001600682018054610b4290611669565b80601f0160208091040260200160405190810160405280929190818152602001828054610b6e90611669565b8015610bbb5780601f10610b9057610100808354040283529160200191610bbb565b820191906000526020600020905b815481529060010190602001808311610b9e57829003601f168201915b50505050508152602001600782018054610bd490611669565b80601f0160208091040260200160405190810160405280929190818152602001828054610c0090611669565b8015610c4d5780601f10610c2257610100808354040283529160200191610c4d565b820191906000526020600020905b815481529060010190602001808311610c3057829003601f168201915b50505091835250506008919091015460ff1615156020909101529550505050505b50919050565b33600090815260056020908152604091829020805483518184028101840190945280845260609392830182828015610ccb57602002820191906000526020600020905b815481526020019060010190808311610cb7575b5050505050905090565b600054604051633df3f80b60e21b81523360048201526001600160a01b039091169063f7cfe02c90602401602060405180830381865afa158015610d1d573d6000803e3d6000fd5b505050506040513d601f19601f82011682018060405250810190610d419190611619565b610d5e576040516316b44a8360e11b815260040160405180910390fd5b600083815260036020526040902060080154839060ff16158015610d9a57506000818152600360205260409020600101546001600160a01b0316155b15610dbb5760405163e94c830f60e01b81526004810182905260240161019b565b6000848152600360205260409020600501610dd684826116ec565b506000848152600360205260409020600601610df283826116ec565b5060405184907fe121303af0e0ef50b78994daac07eac0f0784f41107bedbb1939cf9b79ba196190600090a250505050565b600081815260036020526040902060080154606090829060ff16158015610e6357506000818152600360205260409020600101546001600160a01b0316155b15610e845760405163e94c830f60e01b81526004810182905260240161019b565b600083815260036020526040808220600101548254915163b6caedb960e01b81526001600160a01b039182166004820181905233602483018190529094908514939092169063b6caedb990604401602060405180830381865afa158015610eef573d6000803e3d6000fd5b505050506040513d601f19601f82011682018060405250810190610f139190611619565b8015610f8657506000546040516337cfc39b60e11b81523360048201526001600160a01b0390911690636f9f873690602401602060405180830381865afa158015610f62573d6000803e3d6000fd5b505050506040513d601f19601f82011682018060405250810190610f869190611619565b905081158015610f94575080155b15610fb2576040516320883a6d60e01b815260040160405180910390fd5b600086815260046020908152604080832080548251818502810185019093528083529193909284015b828210156111085760008481526020908190206040805160c081018252600586029092018054835260018101549383019390935260028301546001600160a01b038116918301919091529091906060830190600160a01b900460ff16600481111561104857611048611539565b600481111561105957611059611539565b815260200160038201805461106d90611669565b80601f016020809104026020016040519081016040528092919081815260200182805461109990611669565b80156110e65780601f106110bb576101008083540402835291602001916110e6565b820191906000526020600020905b8154815290600101906020018083116110c957829003601f168201915b5050505050815260200160048201548152505081526020019060010190610fdb565b50505050945050505050919050565b634e487b7160e01b600052604160045260246000fd5b600082601f83011261113e57600080fd5b813567ffffffffffffffff8082111561115957611159611117565b604051601f8301601f19908116603f0116810190828211818310171561118157611181611117565b8160405283815286602085880101111561119a57600080fd5b836020870160208301376000602085830101528094505050505092915050565b6000806000606084860312156111cf57600080fd5b833592506020840135600581106111e557600080fd5b9150604084013567ffffffffffffffff81111561120157600080fd5b61120d8682870161112d565b9150509250925092565b80356001600160a01b038116811461122e57600080fd5b919050565b600080600080600080600060e0888a03121561124e57600080fd5b61125788611217565b9650602088013567ffffffffffffffff8082111561127457600080fd5b6112808b838c0161112d565b975060408a013591508082111561129657600080fd5b6112a28b838c0161112d565b965060608a01359150808211156112b857600080fd5b6112c48b838c0161112d565b955060808a01359150808211156112da57600080fd5b6112e68b838c0161112d565b945060a08a01359150808211156112fc57600080fd5b6113088b838c0161112d565b935060c08a013591508082111561131e57600080fd5b5061132b8a828b0161112d565b91505092959891949750929550565b60006020828403121561134c57600080fd5b5035919050565b6000815180845260005b818110156113795760208185018101518683018201520161135d565b506000602082860101526020601f19601f83011685010191505092915050565b6020815281516020820152600060208301516113c060408401826001600160a01b03169052565b5060408301516101208060608501526113dd610140850183611353565b91506060850151601f19808685030160808701526113fb8483611353565b935060808701519150808685030160a08701526114188483611353565b935060a08701519150808685030160c08701526114358483611353565b935060c08701519150808685030160e08701526114528483611353565b935060e087015191506101008187860301818801526114718584611353565b945080880151925050506114888286018215159052565b5090949350505050565b6020808252825182820181905260009190848201906040850190845b818110156114ca578351835292840192918401916001016114ae565b50909695505050505050565b6000806000606084860312156114eb57600080fd5b83359250602084013567ffffffffffffffff8082111561150a57600080fd5b6115168783880161112d565b9350604086013591508082111561152c57600080fd5b5061120d8682870161112d565b634e487b7160e01b600052602160045260246000fd5b602080825282518282018190526000919060409081850190600581811b8701840188860187805b85811015611609578a8403603f19018752825180518552898101518a860152888101516001600160a01b03168986015260608082015160c091908881106115cb57634e487b7160e01b86526021600452602486fd5b908701526080828101518188018390526115e783890182611353565b60a0948501519890940197909752505096890196935091880191600101611576565b50919a9950505050505050505050565b60006020828403121561162b57600080fd5b8151801515811461163b57600080fd5b9392505050565b60006001820161166257634e487b7160e01b600052601160045260246000fd5b5060010190565b600181811c9082168061167d57607f821691505b602082108103610c6e57634e487b7160e01b600052602260045260246000fd5b601f8211156116e757600081815260208120601f850160051c810160208610156116c45750805b601f850160051c820191505b818110156116e3578281556001016116d0565b5050505b505050565b815167ffffffffffffffff81111561170657611706611117565b61171a816117148454611669565b8461169d565b602080601f83116001811461174f57600084156117375750858301515b600019600386901b1c1916600185901b1785556116e3565b600085815260208120601f198616915b8281101561177e5788860151825594840194600190910190840161175f565b508582101561179c5787850151600019600388901b60f8161c191681555b5050505050600190811b0190555056fea2646970667358221220d412d64e686ea65bc49a102922acda3a6f9bab041fd81549eacce7848718733064736f6c63430008150033",
  "immutableReferences": {},
  "source": "// SPDX-License-Identifier: MIT\npragma solidity ^0.8.21;\n\nimport \"./ControleAcces.sol\";\n\n/**\n * @title DossierMedical\n * @notice Contrat principal gérant les dossiers médicaux et les notes médicales associées.\n * @dev Démontre l'utilisation de la composition (relation `contient` avec Note et `utilise` avec ControleAcces du diagramme UML).\n */\ncontract DossierMedical {\n\n    /// @notice Énumération des types de notes, respectant exactement le diagramme de classes\n    enum TypeNote { Ordonnance, Texte, Lettre, Avis, Analyse }\n\n    /// @notice Structure représentant une note médicale\n    struct Note {\n        uint noteId;\n        uint dossierId;\n        address adresseMedecin;\n        TypeNote typeNote;\n        string contenu;     // Note architecturale: Dans un système lourd, ce contenu pourrait être stocké sur IPFS. Ici conservé on-chain pour démonstration.\n        uint timestamp;\n    }\n\n    /// @notice Structure représentant un dossier médical\n    struct Dossier {\n        uint dossierId;\n        address patientAdresse;\n        string nom;         \n        string prenom;\n        string dateNaissance;\n        string telephone;\n        string email;\n        string cin;\n        bool estActif;\n    }\n\n    // --- Variables d'état ---\n    ControleAcces public controleAcces; // Lien d'utilisation vers le contrat d'accès\n\n    uint private compteurDossier;\n    uint private compteurNote;\n\n    // --- Mappings ---\n    mapping(uint => Dossier) private dossiers;\n    mapping(uint => Note[]) private notesDossier; // Relation de composition 1 vers 0..* \n    mapping(address => uint[]) private dossiersDuPatient;\n\n    // --- Événements ---\n    event DossierCree(uint indexed dossierId, address indexed patient);\n    event InfosAdministrativesModifiees(uint indexed dossierId);\n    event NoteAjoutee(uint indexed dossierId, uint indexed noteId, address indexed medecin);\n\n    // --- Erreurs Personnalisées (Gas Optimization) ---\n    error AccesRefuseSecretaire();\n    error AccesRefuseMedecin();\n    error AccesRefuseGlobal();\n    error DossierInexistant(uint dossierId);\n    error AdressePatientInvalide();\n\n    // --- Modificateurs ---\n    modifier seulementSecretaire() {\n        if (!controleAcces.secretairesActifs(msg.sender)) revert AccesRefuseSecretaire();\n        _;\n    }\n\n    modifier seulementMedecin(uint _dossierId) {\n        address patient = dossiers[_dossierId].patientAdresse;\n        // Vérifie l'autorisation du patient ET que le médecin est toujours formellement certifié par l'Admin. Sécurité doublée.\n        if (!controleAcces.droitAcces(patient, msg.sender) || !controleAcces.medecinsCertifies(msg.sender)) {\n            revert AccesRefuseMedecin();\n        }\n        _;\n    }\n\n    modifier dossierExiste(uint _dossierId) {\n        if (!dossiers[_dossierId].estActif && dossiers[_dossierId].patientAdresse == address(0)) {\n            revert DossierInexistant(_dossierId);\n        }\n        _;\n    }\n\n    /**\n     * @notice Initialise le contrat avec l'adresse du contrat ControleAcces.\n     * @param _controleAcces Adresse du contrat ControleAcces déployé.\n     */\n    constructor(address _controleAcces) {\n        require(_controleAcces != address(0), \"Adresse ControleAcces invalide\");\n        controleAcces = ControleAcces(_controleAcces);\n    }\n\n    /**\n     * @notice Création d'un dossier médical par la secrétaire.\n     * @dev Les données (chaînes) sont passées en calldata pour optimiser le Gas.\n     */\n    function creerDossier(\n        address _patient,\n        string memory _nom,\n        string memory _prenom,\n        string memory _dateNaissance,\n        string memory _tel,\n        string memory _email,\n        string memory _cin\n    ) external seulementSecretaire {\n        if (_patient == address(0)) revert AdressePatientInvalide();\n\n        compteurDossier++;\n        uint nouveauDossierId = compteurDossier;\n\n        dossiers[nouveauDossierId] = Dossier({\n            dossierId: nouveauDossierId,\n            patientAdresse: _patient,\n            nom: _nom,\n            prenom: _prenom,\n            dateNaissance: _dateNaissance,\n            telephone: _tel,\n            email: _email,\n            cin: _cin,\n            estActif: true\n        });\n\n        dossiersDuPatient[_patient].push(nouveauDossierId);\n\n        emit DossierCree(nouveauDossierId, _patient);\n    }\n\n    /**\n     * @notice Modifie les informations administratives de contact du patient.\n     * @dev Action réservée à la secrétaire selon le diagramme UML.\n     */\n    function modifierInfosAdmin(\n        uint _dossierId,\n        string memory _tel,\n        string memory _email\n    ) external seulementSecretaire dossierExiste(_dossierId) {\n        dossiers[_dossierId].telephone = _tel;\n        dossiers[_dossierId].email = _email;\n        \n        emit InfosAdministrativesModifiees(_dossierId);\n    }\n\n    /**\n     * @notice Ajoute une note médicale au dossier.\n     * @dev Action sécurisée : réservée au médecin qui est certifié ET autorisé par le patient.\n     */\n    function ajouterNote(\n        uint _dossierId,\n        TypeNote _type,\n        string memory _contenu\n    ) external dossierExiste(_dossierId) seulementMedecin(_dossierId) {\n        compteurNote++;\n        uint nouvelleNoteId = compteurNote;\n\n        notesDossier[_dossierId].push(Note({\n            noteId: nouvelleNoteId,\n            dossierId: _dossierId,\n            adresseMedecin: msg.sender,\n            typeNote: _type,\n            contenu: _contenu,\n            timestamp: block.timestamp\n        }));\n\n        emit NoteAjoutee(_dossierId, nouvelleNoteId, msg.sender);\n    }\n\n    /**\n     * @notice Consulter un dossier médical spécifique.\n     * @param _dossierId Identifiant du dossier.\n     * @return Dossier Les informations complètes du dossier.\n     */\n    function getDossier(uint _dossierId) external view dossierExiste(_dossierId) returns (Dossier memory) {\n        address patient = dossiers[_dossierId].patientAdresse;\n        \n        // L'authentification demandée dans le diagramme de cas d'utilisation est vérifiée ici via la clé privée (msg.sender) :\n        // 1. Soit c'est le patient lui-même (Consulter son dossier)\n        // 2. Soit c'est un médecin certifié ET autorisé par le patient (Consulter un dossier médical)\n        // 3. Soit c'est une secrétaire active (bien que non spécifié comme cas direct, nécessaire pour des raisons administratives)\n        bool estPatient = (msg.sender == patient);\n        bool estMedecinAutorise = (controleAcces.droitAcces(patient, msg.sender) && controleAcces.medecinsCertifies(msg.sender));\n        bool estSecretaire = controleAcces.secretairesActifs(msg.sender);\n\n        if (!estPatient && !estMedecinAutorise && !estSecretaire) {\n            revert AccesRefuseGlobal();\n        }\n\n        return dossiers[_dossierId];\n    }\n\n    /**\n     * @notice Permet au patient de récupérer la liste des IDs de ses propres dossiers.\n     * @return uint[] Tableau d'identifiants de dossiers.\n     */\n    function getMesDossiers() external view returns (uint[] memory) {\n        // Authentification via msg.sender : garantit que l'on ne retourne que les dossiers de l'appelant\n        return dossiersDuPatient[msg.sender];\n    }\n\n    /**\n     * @notice Consulter les notes médicales associées à un dossier.\n     * @dev Réservé au Patient lui-même ou au Médecin autorisé.\n     */\n    function getNotes(uint _dossierId) external view dossierExiste(_dossierId) returns (Note[] memory) {\n        address patient = dossiers[_dossierId].patientAdresse;\n\n        bool estPatient = (msg.sender == patient);\n        bool estMedecinAutorise = (controleAcces.droitAcces(patient, msg.sender) && controleAcces.medecinsCertifies(msg.sender));\n\n        if (!estPatient && !estMedecinAutorise) {\n            revert AccesRefuseGlobal();\n        }\n\n        return notesDossier[_dossierId];\n    }\n}",
  "sourcePath": "C:\\Users\\hp\\Desktop\\medical-blockchain\\contracts\\DossierMedical.sol",
  "compiler": {
    "name": "solc",
    "version": "0.8.21+commit.d9974bed.Emscripten.clang"
  },
  "schemaVersion": "3.4.16",
  "updatedAt": "2026-05-07T18:17:40.967Z",
  "networkType": "ethereum",
  "devdoc": {
    "details": "Démontre l'utilisation de la composition (relation `contient` avec Note et `utilise` avec ControleAcces du diagramme UML).",
    "kind": "dev",
    "methods": {
      "ajouterNote(uint256,uint8,string)": {
        "details": "Action sécurisée : réservée au médecin qui est certifié ET autorisé par le patient."
      },
      "constructor": {
        "params": {
          "_controleAcces": "Adresse du contrat ControleAcces déployé."
        }
      },
      "creerDossier(address,string,string,string,string,string,string)": {
        "details": "Les données (chaînes) sont passées en calldata pour optimiser le Gas."
      },
      "getDossier(uint256)": {
        "params": {
          "_dossierId": "Identifiant du dossier."
        },
        "returns": {
          "_0": "Dossier Les informations complètes du dossier."
        }
      },
      "getMesDossiers()": {
        "returns": {
          "_0": "uint[] Tableau d'identifiants de dossiers."
        }
      },
      "getNotes(uint256)": {
        "details": "Réservé au Patient lui-même ou au Médecin autorisé."
      },
      "modifierInfosAdmin(uint256,string,string)": {
        "details": "Action réservée à la secrétaire selon le diagramme UML."
      }
    },
    "title": "DossierMedical",
    "version": 1
  },
  "userdoc": {
    "kind": "user",
    "methods": {
      "ajouterNote(uint256,uint8,string)": {
        "notice": "Ajoute une note médicale au dossier."
      },
      "constructor": {
        "notice": "Initialise le contrat avec l'adresse du contrat ControleAcces."
      },
      "creerDossier(address,string,string,string,string,string,string)": {
        "notice": "Création d'un dossier médical par la secrétaire."
      },
      "getDossier(uint256)": {
        "notice": "Consulter un dossier médical spécifique."
      },
      "getMesDossiers()": {
        "notice": "Permet au patient de récupérer la liste des IDs de ses propres dossiers."
      },
      "getNotes(uint256)": {
        "notice": "Consulter les notes médicales associées à un dossier."
      },
      "modifierInfosAdmin(uint256,string,string)": {
        "notice": "Modifie les informations administratives de contact du patient."
      }
    },
    "notice": "Contrat principal gérant les dossiers médicaux et les notes médicales associées.",
    "version": 1
  }
}